{
  "_format": "hh-sol-artifact-1",
  "contractName": "MyToken",
  "sourceName": "contracts/MyToken.sol",
  "abi": [
    {
      "inputs": [
        {
          "internalType": "string",
          "name": "_name",
          "type": "string"
        },
        {
          "internalType": "string",
          "name": "_symbol",
          "type": "string"
        },
        {
          "internalType": "uint256",
          "name": "_totalSupply",
          "type": "uint256"
        }
      ],
      "stateMutability": "nonpayable",
      "type": "constructor"
    },
    {
      "anonymous": false,
      "inputs": [
        {
          "indexed": true,
          "internalType": "address",
          "name": "from",
          "type": "address"
        },
        {
          "indexed": false,
          "internalType": "uint256",
          "name": "value",
          "type": "uint256"
        }
      ],
      "name": "Burn",
      "type": "event"
    },
    {
      "anonymous": false,
      "inputs": [
        {
          "indexed": true,
          "internalType": "address",
          "name": "from",
          "type": "address"
        },
        {
          "indexed": true,
          "internalType": "address",
          "name": "to",
          "type": "address"
        },
        {
          "indexed": false,
          "internalType": "uint256",
          "name": "value",
          "type": "uint256"
        }
      ],
      "name": "Transfer",
      "type": "event"
    },
    {
      "inputs": [
        {
          "internalType": "address",
          "name": "",
          "type": "address"
        }
      ],
      "name": "balanceOf",
      "outputs": [
        {
          "internalType": "uint256",
          "name": "",
          "type": "uint256"
        }
      ],
      "stateMutability": "view",
      "type": "function"
    },
    {
      "inputs": [
        {
          "internalType": "uint256",
          "name": "amount",
          "type": "uint256"
        }
      ],
      "name": "burn",
      "outputs": [],
      "stateMutability": "nonpayable",
      "type": "function"
    },
    {
      "inputs": [
        {
          "internalType": "address",
          "name": "to",
          "type": "address"
        },
        {
          "internalType": "uint256",
          "name": "amount",
          "type": "uint256"
        }
      ],
      "name": "mint",
      "outputs": [],
      "stateMutability": "nonpayable",
      "type": "function"
    },
    {
      "inputs": [],
      "name": "name",
      "outputs": [
        {
          "internalType": "string",
          "name": "",
          "type": "string"
        }
      ],
      "stateMutability": "view",
      "type": "function"
    },
    {
      "inputs": [],
      "name": "owner",
      "outputs": [
        {
          "internalType": "address",
          "name": "",
          "type": "address"
        }
      ],
      "stateMutability": "view",
      "type": "function"
    },
    {
      "inputs": [],
      "name": "symbol",
      "outputs": [
        {
          "internalType": "string",
          "name": "",
          "type": "string"
        }
      ],
      "stateMutability": "view",
      "type": "function"
    },
    {
      "inputs": [],
      "name": "totalSupply",
      "outputs": [
        {
          "internalType": "uint256",
          "name": "",
          "type": "uint256"
        }
      ],
      "stateMutability": "view",
      "type": "function"
    },
    {
      "inputs": [
        {
          "internalType": "address",
          "name": "to",
          "type": "address"
        },
        {
          "internalType": "uint256",
          "name": "amount",
          "type": "uint256"
        }
      ],
      "name": "transfer",
      "outputs": [],
      "stateMutability": "nonpayable",
      "type": "function"
    }
  ],
  "bytecode": "0x60806040523480156200001157600080fd5b50604051620012ab380380620012ab8339818101604052810190620000379190620002be565b826000908162000048919062000599565b5081600190816200005a919062000599565b508060028190555080600360003373ffffffffffffffffffffffffffffffffffffffff1673ffffffffffffffffffffffffffffffffffffffff1681526020019081526020016000208190555033600460006101000a81548173ffffffffffffffffffffffffffffffffffffffff021916908373ffffffffffffffffffffffffffffffffffffffff16021790555050505062000680565b6000604051905090565b600080fd5b600080fd5b600080fd5b600080fd5b6000601f19601f8301169050919050565b7f4e487b7100000000000000000000000000000000000000000000000000000000600052604160045260246000fd5b62000159826200010e565b810181811067ffffffffffffffff821117156200017b576200017a6200011f565b5b80604052505050565b600062000190620000f0565b90506200019e82826200014e565b919050565b600067ffffffffffffffff821115620001c157620001c06200011f565b5b620001cc826200010e565b9050602081019050919050565b60005b83811015620001f9578082015181840152602081019050620001dc565b60008484015250505050565b60006200021c6200021684620001a3565b62000184565b9050828152602081018484840111156200023b576200023a62000109565b5b62000248848285620001d9565b509392505050565b600082601f83011262000268576200026762000104565b5b81516200027a84826020860162000205565b91505092915050565b6000819050919050565b620002988162000283565b8114620002a457600080fd5b50565b600081519050620002b8816200028d565b92915050565b600080600060608486031215620002da57620002d9620000fa565b5b600084015167ffffffffffffffff811115620002fb57620002fa620000ff565b5b620003098682870162000250565b935050602084015167ffffffffffffffff8111156200032d576200032c620000ff565b5b6200033b8682870162000250565b92505060406200034e86828701620002a7565b9150509250925092565b600081519050919050565b7f4e487b7100000000000000000000000000000000000000000000000000000000600052602260045260246000fd5b60006002820490506001821680620003ab57607f821691505b602082108103620003c157620003c062000363565b5b50919050565b60008190508160005260206000209050919050565b60006020601f8301049050919050565b600082821b905092915050565b6000600883026200042b7fffffffffffffffffffffffffffffffffffffffffffffffffffffffffffffffff82620003ec565b620004378683620003ec565b95508019841693508086168417925050509392505050565b6000819050919050565b60006200047a620004746200046e8462000283565b6200044f565b62000283565b9050919050565b6000819050919050565b620004968362000459565b620004ae620004a58262000481565b848454620003f9565b825550505050565b600090565b620004c5620004b6565b620004d28184846200048b565b505050565b5b81811015620004fa57620004ee600082620004bb565b600181019050620004d8565b5050565b601f82111562000549576200051381620003c7565b6200051e84620003dc565b810160208510156200052e578190505b620005466200053d85620003dc565b830182620004d7565b50505b505050565b600082821c905092915050565b60006200056e600019846008026200054e565b1980831691505092915050565b60006200058983836200055b565b9150826002028217905092915050565b620005a48262000358565b67ffffffffffffffff811115620005c057620005bf6200011f565b5b620005cc825462000392565b620005d9828285620004fe565b600060209050601f831160018114620006115760008415620005fc578287015190505b6200060885826200057b565b86555062000678565b601f1984166200062186620003c7565b60005b828110156200064b5784890151825560018201915060208501945060208101905062000624565b868310156200066b578489015162000667601f8916826200055b565b8355505b6001600288020188555050505b505050505050565b610c1b80620006906000396000f3fe608060405234801561001057600080fd5b50600436106100885760003560e01c806370a082311161005b57806370a08231146101015780638da5cb5b1461013157806395d89b411461014f578063a9059cbb1461016d57610088565b806306fdde031461008d57806318160ddd146100ab57806340c10f19146100c957806342966c68146100e5575b600080fd5b610095610189565b6040516100a291906107db565b60405180910390f35b6100b3610217565b6040516100c09190610816565b60405180910390f35b6100e360048036038101906100de91906108c0565b61021d565b005b6100ff60048036038101906100fa9190610900565b610320565b005b61011b6004803603810190610116919061092d565b6104a5565b6040516101289190610816565b60405180910390f35b6101396104bd565b6040516101469190610969565b60405180910390f35b6101576104e3565b60405161016491906107db565b60405180910390f35b610187600480360381019061018291906108c0565b610571565b005b60008054610196906109b3565b80601f01602080910402602001604051908101604052809291908181526020018280546101c2906109b3565b801561020f5780601f106101e45761010080835404028352916020019161020f565b820191906000526020600020905b8154815290600101906020018083116101f257829003601f168201915b505050505081565b60025481565b600460009054906101000a900473ffffffffffffffffffffffffffffffffffffffff1673ffffffffffffffffffffffffffffffffffffffff163373ffffffffffffffffffffffffffffffffffffffff16146102ad576040517f08c379a00000000000000000000000000000000000000000000000000000000081526004016102a490610a56565b60405180910390fd5b80600360008473ffffffffffffffffffffffffffffffffffffffff1673ffffffffffffffffffffffffffffffffffffffff16815260200190815260200160002060008282546102fc9190610aa5565b9250508190555080600260008282546103159190610aa5565b925050819055505050565b60008111610363576040517f08c379a000000000000000000000000000000000000000000000000000000000815260040161035a90610b25565b60405180910390fd5b80600360003373ffffffffffffffffffffffffffffffffffffffff1673ffffffffffffffffffffffffffffffffffffffff1681526020019081526020016000205410156103e5576040517f08c379a00000000000000000000000000000000000000000000000000000000081526004016103dc90610b91565b60405180910390fd5b80600360003373ffffffffffffffffffffffffffffffffffffffff1673ffffffffffffffffffffffffffffffffffffffff16815260200190815260200160002060008282546104349190610bb1565b92505081905550806002600082825461044d9190610bb1565b925050819055503373ffffffffffffffffffffffffffffffffffffffff167fcc16f5dbb4873280815c1ee09dbd06736cffcc184412cf7a71a0fdb75d397ca58260405161049a9190610816565b60405180910390a250565b60036020528060005260406000206000915090505481565b600460009054906101000a900473ffffffffffffffffffffffffffffffffffffffff1681565b600180546104f0906109b3565b80601f016020809104026020016040519081016040528092919081815260200182805461051c906109b3565b80156105695780601f1061053e57610100808354040283529160200191610569565b820191906000526020600020905b81548152906001019060200180831161054c57829003601f168201915b505050505081565b600081116105b4576040517f08c379a00000000000000000000000000000000000000000000000000000000081526004016105ab90610b25565b60405180910390fd5b80600360003373ffffffffffffffffffffffffffffffffffffffff1673ffffffffffffffffffffffffffffffffffffffff168152602001908152602001600020541015610636576040517f08c379a000000000000000000000000000000000000000000000000000000000815260040161062d90610b91565b60405180910390fd5b80600360003373ffffffffffffffffffffffffffffffffffffffff1673ffffffffffffffffffffffffffffffffffffffff16815260200190815260200160002060008282546106859190610bb1565b9250508190555080600360008473ffffffffffffffffffffffffffffffffffffffff1673ffffffffffffffffffffffffffffffffffffffff16815260200190815260200160002060008282546106db9190610aa5565b925050819055508173ffffffffffffffffffffffffffffffffffffffff163373ffffffffffffffffffffffffffffffffffffffff167fddf252ad1be2c89b69c2b068fc378daa952ba7f163c4a11628f55a4df523b3ef8360405161073f9190610816565b60405180910390a35050565b600081519050919050565b600082825260208201905092915050565b60005b8381101561078557808201518184015260208101905061076a565b60008484015250505050565b6000601f19601f8301169050919050565b60006107ad8261074b565b6107b78185610756565b93506107c7818560208601610767565b6107d081610791565b840191505092915050565b600060208201905081810360008301526107f581846107a2565b905092915050565b6000819050919050565b610810816107fd565b82525050565b600060208201905061082b6000830184610807565b92915050565b600080fd5b600073ffffffffffffffffffffffffffffffffffffffff82169050919050565b600061086182610836565b9050919050565b61087181610856565b811461087c57600080fd5b50565b60008135905061088e81610868565b92915050565b61089d816107fd565b81146108a857600080fd5b50565b6000813590506108ba81610894565b92915050565b600080604083850312156108d7576108d6610831565b5b60006108e58582860161087f565b92505060206108f6858286016108ab565b9150509250929050565b60006020828403121561091657610915610831565b5b6000610924848285016108ab565b91505092915050565b60006020828403121561094357610942610831565b5b60006109518482850161087f565b91505092915050565b61096381610856565b82525050565b600060208201905061097e600083018461095a565b92915050565b7f4e487b7100000000000000000000000000000000000000000000000000000000600052602260045260246000fd5b600060028204905060018216806109cb57607f821691505b6020821081036109de576109dd610984565b5b50919050565b7f596f7520617265206e6f7420746865206f776e6572206f66207468697320636f60008201527f6e74726163742100000000000000000000000000000000000000000000000000602082015250565b6000610a40602783610756565b9150610a4b826109e4565b604082019050919050565b60006020820190508181036000830152610a6f81610a33565b9050919050565b7f4e487b7100000000000000000000000000000000000000000000000000000000600052601160045260246000fd5b6000610ab0826107fd565b9150610abb836107fd565b9250828201905080821115610ad357610ad2610a76565b5b92915050565b7f456e74657220616d6f756e742067726561746572207468616e207a65726f0000600082015250565b6000610b0f601e83610756565b9150610b1a82610ad9565b602082019050919050565b60006020820190508181036000830152610b3e81610b02565b9050919050565b7f496e73756666696369656e742062616c616e6365000000000000000000000000600082015250565b6000610b7b601483610756565b9150610b8682610b45565b602082019050919050565b60006020820190508181036000830152610baa81610b6e565b9050919050565b6000610bbc826107fd565b9150610bc7836107fd565b9250828203905081811115610bdf57610bde610a76565b5b9291505056fea2646970667358221220676ed3b6ce259615a83bc3d0374dc8a8b8b6f3692ace1a93db6647a1eae9446b64736f6c63430008120033",
  "linkReferences": {},
  "deployedLinkReferences": {}
}